{
  "contractName": "Election",
  "abi": [
    {
      "inputs": [],
      "payable": false,
      "stateMutability": "nonpayable",
      "type": "constructor"
    },
    {
      "anonymous": false,
      "inputs": [
        {
          "indexed": true,
          "internalType": "uint256",
          "name": "_candidateId",
          "type": "uint256"
        }
      ],
      "name": "votedEvent",
      "type": "event"
    },
    {
      "constant": true,
      "inputs": [
        {
          "internalType": "uint256",
          "name": "",
          "type": "uint256"
        }
      ],
      "name": "candidates",
      "outputs": [
        {
          "internalType": "uint256",
          "name": "id",
          "type": "uint256"
        },
        {
          "internalType": "string",
          "name": "name",
          "type": "string"
        },
        {
          "internalType": "uint256",
          "name": "voteCount",
          "type": "uint256"
        }
      ],
      "payable": false,
      "stateMutability": "view",
      "type": "function"
    },
    {
      "constant": true,
      "inputs": [],
      "name": "candidatesCount",
      "outputs": [
        {
          "internalType": "uint256",
          "name": "",
          "type": "uint256"
        }
      ],
      "payable": false,
      "stateMutability": "view",
      "type": "function"
    },
    {
      "constant": true,
      "inputs": [
        {
          "internalType": "address",
          "name": "",
          "type": "address"
        }
      ],
      "name": "voters",
      "outputs": [
        {
          "internalType": "bool",
          "name": "",
          "type": "bool"
        }
      ],
      "payable": false,
      "stateMutability": "view",
      "type": "function"
    },
    {
      "constant": false,
      "inputs": [
        {
          "internalType": "uint256",
          "name": "_candidateId",
          "type": "uint256"
        }
      ],
      "name": "vote",
      "outputs": [],
      "payable": false,
      "stateMutability": "nonpayable",
      "type": "function"
    }
  ],
  "bytecode": "0x608060405234801561001057600080fd5b506100556040518060400160405280600381526020017f424a50000000000000000000000000000000000000000000000000000000000081525061012660201b60201c565b6100996040518060400160405280600881526020017f436f6e677265737300000000000000000000000000000000000000000000000081525061012660201b60201c565b6100dd6040518060400160405280600381526020017f414150000000000000000000000000000000000000000000000000000000000081525061012660201b60201c565b6101216040518060400160405280600381526020017f425350000000000000000000000000000000000000000000000000000000000081525061012660201b60201c565b610246565b60026000815480929190600101919050555060405180606001604052806002548152602001828152602001600081525060008060025481526020019081526020016000206000820151816000015560208201518160010190805190602001906101909291906101a1565b506040820151816002015590505050565b828054600181600116156101000203166002900490600052602060002090601f016020900481019282601f106101e257805160ff1916838001178555610210565b82800160010185558215610210579182015b8281111561020f5782518255916020019190600101906101f4565b5b50905061021d9190610221565b5090565b61024391905b8082111561023f576000816000905550600101610227565b5090565b90565b6103e9806102556000396000f3fe608060405234801561001057600080fd5b506004361061004c5760003560e01c80630121b93f146100515780632d35a8a21461007f5780633477ee2e1461009d578063a3ec138d14610152575b600080fd5b61007d6004803603602081101561006757600080fd5b81019080803590602001909291905050506101ae565b005b6100876102cc565b6040518082815260200191505060405180910390f35b6100c9600480360360208110156100b357600080fd5b81019080803590602001909291905050506102d2565b6040518084815260200180602001838152602001828103825284818151815260200191508051906020019080838360005b838110156101155780820151818401526020810190506100fa565b50505050905090810190601f1680156101425780820380516001836020036101000a031916815260200191505b5094505050505060405180910390f35b6101946004803603602081101561016857600080fd5b81019080803573ffffffffffffffffffffffffffffffffffffffff169060200190929190505050610394565b604051808215151515815260200191505060405180910390f35b600160003373ffffffffffffffffffffffffffffffffffffffff1673ffffffffffffffffffffffffffffffffffffffff16815260200190815260200160002060009054906101000a900460ff161561020557600080fd5b60008111801561021757506002548111155b61022057600080fd5b60018060003373ffffffffffffffffffffffffffffffffffffffff1673ffffffffffffffffffffffffffffffffffffffff16815260200190815260200160002060006101000a81548160ff02191690831515021790555060008082815260200190815260200160002060020160008154809291906001019190505550807ffff3c900d938d21d0990d786e819f29b8d05c1ef587b462b939609625b684b1660405160405180910390a250565b60025481565b6000602052806000526040600020600091509050806000015490806001018054600181600116156101000203166002900480601f0160208091040260200160405190810160405280929190818152602001828054600181600116156101000203166002900480156103845780601f1061035957610100808354040283529160200191610384565b820191906000526020600020905b81548152906001019060200180831161036757829003601f168201915b5050505050908060020154905083565b60016020528060005260406000206000915054906101000a900460ff168156fea265627a7a72315820aca86ac37a9d18fec9476c91f7a323da2f3526bcd0c1cc3c067bf9787332887964736f6c63430005100032",
  "source": "pragma solidity ^0.5.0;\n\ncontract Election {\n    // Candidates structure\n    struct Candidate {\n        uint256 id;\n        string name;\n        uint256 voteCount;\n    }\n\n    // Store candidates\n    mapping(uint256 => Candidate) public candidates;\n\n    // Store accounts that have already voted\n    mapping(address => bool) public voters;\n\n    // Store candidates count\n    uint256 public candidatesCount;\n\n    // Constructor\n    constructor() public {\n        addCandidate(\"BJP\");\n        addCandidate(\"Congress\");\n        addCandidate(\"AAP\");\n        addCandidate(\"BSP\");\n    }\n\n    // voted event\n    event votedEvent(uint256 indexed _candidateId);\n\n    // Add a candidate\n    function addCandidate(string memory _name) private {\n        candidatesCount++;\n        candidates[candidatesCount] = Candidate(candidatesCount, _name, 0);\n    }\n\n    function vote(uint256 _candidateId) public {\n        // Require that they haven't voted before\n        require(!voters[msg.sender]);\n\n        // Require a valid candidate\n        require(_candidateId > 0 && _candidateId <= candidatesCount);\n\n        // Record that voter has voted\n        voters[msg.sender] = true;\n\n        // Update candidate vote count\n        candidates[_candidateId].voteCount++;\n\n        // trigger voted event\n        emit votedEvent(_candidateId);\n    }\n}\n",
  "sourcePath": "/Users/pushpitbhardwaj/Desktop/h4CK3R/blockchain/DeVote/contracts/Election.sol",
  "compiler": {
    "name": "solc",
    "version": "0.5.16+commit.9c3226ce.Emscripten.clang"
  },
  "schemaVersion": "3.0.23",
  "updatedAt": "2021-05-11T16:56:48.906Z",
  "networkType": "ethereum",
  "devdoc": {
    "methods": {}
  },
  "userdoc": {
    "methods": {}
  }
}